:100000000C9434000C9412010C9446000C9446009D
:100010000C9446000C9446000C9446000C94460048
:100020000C9446000C9446000C9446000C94460038
:100030000C9446000C9446000C9446000C94460028
:100040000C9446000C9446000C9446000C94460018
:100050000C9446000C9446000C9446000C94460008
:100060000C9446000C94460011241FBECFEFD8E03C
:10007000DEBFCDBF21E0A0E0B1E001C01D92A23003
:10008000B207E1F70E9432010C944A010C9400007F
:1000900088E08BB92FEF33EC99E02150304090404D
:1000A000E1F700C0000090E19BB92FEF33EC99E03D
:1000B000215030409040E1F700C0000090E29BB931
:1000C0002FEF33EC99E0215030409040E1F700C031
:1000D000000090E49BB92FEF33EC99E021503040C1
:1000E0009040E1F700C0000090E89BB92FEF33EC9F
:1000F00099E0215030409040E1F700C000001BB86B
:1001000091E095B92FEF33EC99E0215030409040C9
:10011000E1F700C0000092E095B92FEF33EC99E0D1
:10012000215030409040E1F700C0000094E095B9C4
:100130002FEF33EC99E0215030409040E1F700C0C0
:10014000000085B92FEF33EC89E02150304080402A
:10015000E1F700C0000015B8089588E085B92FEFD9
:1001600033EC99E0215030409040E1F700C00000AE
:1001700094E095B92FEF33EC99E021503040904056
:10018000E1F700C0000092E095B92FEF33EC99E061
:10019000215030409040E1F700C0000091E095B957
:1001A0002FEF33EC99E0215030409040E1F700C050
:1001B000000015B890E89BB92FEF33EC99E021507F
:1001C00030409040E1F700C0000090E49BB92FEF71
:1001D00033EC99E0215030409040E1F700C000003E
:1001E00090E29BB92FEF33EC99E0215030409040E2
:1001F000E1F700C0000090E19BB92FEF33EC99E0EC
:10020000215030409040E1F700C000008BB92FEF43
:1002100033EC89E0215030408040E1F700C000001D
:100220001BB808951F920F920FB60F9211242F93AF
:100230003F938F939F93209100013091010181E0C2
:1002400090E0232B11F080E090E0909301018093E7
:1002500000019F918F913F912F910F900FBE0F90B2
:100260001F90189584B18F6084B98AB1886F8AB95C
:1002700081E08DBB83E080936900789480910001D8
:1002800090910101892B19F00E944800F7CF0E943C
:08029000AD00F4CFF894FFCF9C
:00000001FF
