:100000000C9434000C943E000C943E000C943E0082
:100010000C943E000C943E000C943E000C943E0068
:100020000C943E000C943E000C943E000C943E0058
:100030000C943E000C943E000C943E000C943E0048
:100040000C943E000C943E000C943E000C943E0038
:100050000C943E000C943E000C943E000C943E0028
:100060000C943E000C943E0011241FBECFEFD8E04C
:10007000DEBFCDBF0E9409010C9414010C94000056
:1000800088E08BB92FEF33EC99E02150304090405D
:10009000E1F700C0000090E19BB92FEF33EC99E04D
:1000A000215030409040E1F700C0000090E29BB941
:1000B0002FEF33EC99E0215030409040E1F700C041
:1000C000000090E49BB92FEF33EC99E021503040D1
:1000D0009040E1F700C0000090E89BB92FEF33ECAF
:1000E00099E0215030409040E1F700C000001BB87B
:1000F00091E095B92FEF33EC99E0215030409040DA
:10010000E1F700C0000092E095B92FEF33EC99E0E1
:10011000215030409040E1F700C0000094E095B9D4
:100120002FEF33EC99E0215030409040E1F700C0D0
:10013000000085B92FEF33EC89E02150304080403A
:10014000E1F700C0000015B8089588E085B92FEFE9
:1001500033EC99E0215030409040E1F700C00000BE
:1001600094E095B92FEF33EC99E021503040904066
:10017000E1F700C0000092E095B92FEF33EC99E071
:10018000215030409040E1F700C0000091E095B967
:100190002FEF33EC99E0215030409040E1F700C060
:1001A000000015B890E89BB92FEF33EC99E021508F
:1001B00030409040E1F700C0000090E49BB92FEF81
:1001C00033EC99E0215030409040E1F700C000004E
:1001D00090E29BB92FEF33EC99E0215030409040F2
:1001E000E1F700C0000090E19BB92FEF33EC99E0FC
:1001F000215030409040E1F700C000008BB92FEF54
:1002000033EC89E0215030408040E1F700C000002D
:10021000089584B18F6084B98AB1886F8AB90E94C9
:0C02200040000E94A500FBCFF894FFCF27
:00000001FF
